:100000000C940E040C9455040C9455040C94550453
:100010000C9455040C9455040C9455040C945504FC
:100020000C9455040C9455040C94842A0C94562B6F
:100030000C9492250C9455040C9455040C9455047E
:100040000C9455040C9455040C9455040C945504CC
:100050000C9419210C94EB250C9455040C94550424
:100060000C9455040C9455040C9455040C945504AC
:100070000C9455040C9455040C9455040C9455049C
:100080000C9455040C9455040C9455040C9455048C
:100090000C9455040C9455040C9455040C9455047C
:1000A0000C9455040C9455040C945504960696062D
:1000B000C206C2062A0748076D086D085307E807FD
:1000C000F907F9075D086D086D086608110911093F
:1000D000230923091A0923092309230911091109ED
:1000E0001F09230923091F0928202A202F20322035
:1000F000352038203B20C32BEA2BE22CEA2BE22CC4
:10010000362C592CE22CB02CBF2CE000E100390039
:100110002B00350029000000000000000000000056
:10012000E3000000040014001E003A00000000007C
:10013000000000000000E2001D0016001A001F0071
:100140003B00000000004C00490011504F001B0014
:100150000700080020003C005200000031000000B1
:100160004500510006000900150021003D00E50092
:10017000280030002E004400500019000A0017002B
:1001800022003E00380034002F002D0043002C00D8
:1001900005000B001C0023003F00000000000000D1
:1001A0002A004600E40011000D0018002400400061
:1001B00037003300130027004200E60010000E0055
:1001C0000C002500410036000F0012002600000040
:1001D00000000000000000000000C05C0000000003
:1001E000000000000000000000000000000000000F
:1001F000C25C0000000000000000000000000000E1
:10020000000000000000C15C0000000000000000D1
:10021000125000000000000000000000BE5C000062
:1002200000000000000000000000000000000000CE
:100230000000BF5C000000000000000000000000A3
:1002400000000000000000000000000000000000AE
:10025000000000000000000000000000000000009E
:10026000000000000000000000000000000000008E
:10027000000000000000000000000000000000007E
:10028000000000000000000000000000000000006E
:10029000000000000000000000000000000000005E
:1002A000C35C00000000000000000000000000002F
:1002B00000000000CE5CC55C0000000000000000F3
:1002C00000000000000000000000CF5CC45C0000E3
:1002D00000000000000013500000000000000000BB
:1002E000D05C00000000000000000000CC5C0000BA
:1002F000000000000000D15C0000000000000000D1
:100300000000CD5C0000000000000000D25CC75C73
:100310000000000000000000CA5C000000000000B7
:100320000000D35CC65C000000000000000000007C
:100330000000000000000000D45CC95C0000000068
:1003400000000000CB5C0000000000000000D55C55
:10035000C85C000000000000D65C00000000000047
:10036000000000000000005C000000000000000031
:10037000000000000000000000000000000000007D
:10038000000000000000000000000000000000006D
:1003900000000000000000000000000010500000FD
:1003A000000000000000000000000000000000004D
:1003B000000000000000000000000000000000003D
:1003C000000000000000000000000000000000002D
:1003D000000000000000000000000000000000001D
:1003E000000000000000000000000000000000000D
:1003F00000000000000000000000000000000000FD
:1004000000000000000000000000000000000000EC
:1004100000000000000000000000000000000000DC
:10042000000000047F3F1F643214643214783C1EC5
:100430001E140A052223252628292A2C2D2F303286
:10044000333536383A3B3D3E4042434547494A4CB6
:100450004E5051535557595A5C5E606264666869E4
:100460006B6D6F71737577797B7D7F8183858789EC
:100470008A8C8E90929496989A9C9E9FA1A3A5A7F1
:10048000A8AAACAEAFB1B3B4B6B8B9BBBCBEBFC11D
:10049000C2C3C5C6C7C9CACBCCCDCED0D1D2D2D3A8
:1004A000D4D5D6D7D7D8D9D9DADADBDBDBDCDCDCBC
:1004B000DCDCDDDDDDDDDCDCDCDCDCDBDBDBDADA7F
:1004C000D9D9D8D7D7D6D5D4D3D2D2D1D0CECDCCF6
:1004D000CBCAC9C7C6C5C3C2C1BFBEBCBBB9B8B60B
:1004E000B4B3B1AFAEACAAA8A7A5A3A19F9E9C9A96
:1004F00098969492908E8C8A89878583817F7D7B64
:1005000079777573716F6D6B6968666462605E5C44
:100510005A5957555351504E4C4A4947454342400A
:100520003E3D3B3A3836353332302F2D2C2A2928A0
:1005300026252322FFAA7F5540000000000000006E
:100540000000000001010203040506080A0C0F1157
:1005500014181C2024292E33393F464C535B626A01
:100560007179818A929AA2AAB2B9C1C8CFD5DCE1C9
:10057000E7EBF0F4F7FAFCFDFEFFFEFDFCFAF7F402
:10058000F0EBE7E1DCD5CFC8C1B9B2AAA29A928A52
:100590008179716A625B534C463F39332E2924209E
:1005A0001C1814110F0C0A080605040302010100AF
:1005B0000000000000000000000001010101010135
:1005C000010101020202020202020202030303030A
:1005D00003030303040404040404040505050505DA
:1005E0000606060606070707070708080808090998
:1005F00009090A0A0A0B0B0B0C0C0C0D0D0D0E0E43
:100600000E0F0F0F101011111112121313141415D5
:100610001516161717181819191A1A1B1B1C1D1D49
:100620001E1E1F202021222223242425262627289F
:1006300029292A2B2C2D2D2E2F30313232333435CF
:10064000363738393A3B3C3D3E3F404142434445D2
:10065000464748494A4C4D4E4F50515354555658B1
:10066000595A5B5D5E5F616264656668696B6C6D5B
:100670006F7072737577787A7B7D7E8082838587D1
:10068000888A8C8E8F91939596989A9C9EA0A2A30F
:10069000A5A7A9ABADAFB1B3B5B7BABCBEC0C2C414
:1006A000C6C9CBCDCFD1D4D6D8DBDDDFE2E4E7E9D4
:1006B000EBEEF0F3F5F8FAFDFF0A034900440038C9
:1006C00000300000000E03490044004F004200418A
:1006D000004F0000000403090409023B000201006E
:1006E000A0FA090400000103010100092111010021
:1006F000012240000705810308000A0904010001E6
:100700000300000009211101000122B60007058243
:100710000320000A12010002000000086469800042
:1007200001000102000105010902A1018502090180
:10073000A100050919012908150025019508750171
:1007400081020501093009311581257F950275085F
:10075000810609381581257F950175088106050CEC
:100760000A38021581257F950175088106C0C005EC
:10077000010980A101850319012AB700150126B7D7
:1007800000950175108100C0050C0901A1018504C7
:1007900019012AA002150126A002950175108100F9
:1007A000C005010906A1018506050719E029E7151D
:1007B0000025019508750181020507190029EF152B
:1007C00000250195F075018102050819012905959B
:1007D0000575019102950175039101C00501090696
:1007E000A101050719E029E7150025019508750104
:1007F00081029501750881010507190029FF15007F
:1008000026FF009506750881000508190129059540
:100810000575019102950175039101C011241FBE58
:10082000CFEFDAE0DEBFCDBF04B603FE27C0809174
:100830005A0390915B03A0915C03B0915D038730F4
:10084000904BA740B04BD1F410925A0310925B0327
:1008500010925C0310925D0314BE84B7877F84BF3F
:100860000FB6F894A895809160008861809360002D
:10087000109260000FBEE0E0F8E3099511E0A0E0FF
:10088000B1E0EAE4FCE502C005900D92AA3CB10794
:10089000D9F723E0AAECB1E001C01D92AA35B20756
:1008A000E1F70E942D150C94232E0C94000081E09A
:1008B000089581E008950C94590408950C945D0402
:1008C0001F93CF93DF9300D000D01F92CDB7DEB738
:1008D00049835A836B833091CC0189819A8131118C
:1008E00014C0662359F0222349F00E94B50A182F3C
:1008F000682F89819A810E945E0A03C00E94890A3A
:10090000182F69817A81812F04C00E94B50A6981FC
:100910007A810F900F900F900F900F90DF91CF91F1
:100920001F910C947111FC01262F4081518162812D
:10093000738184810C94600481E00895CF93DF93E8
:10094000EC0160E00E949304BE01DF91CF910C9412
:100950005E040E94A1130E944B050E949F210C94EB
:10096000DE130C94DA1380E00E94D12080E00E9414
:100970004E050C94B01C08950C94BB040E94FF0813
:100980000E94BC042FEF84E39CE021508040904003
:10099000E1F700C000000C9411260F931F93CF9332
:1009A000DF938C0161E00E949304EC01B8010E9486
:1009B0005B04882309F44BC0B801CE010E941920C2
:1009C000882309F444C0B801CE010E94B6238823CD
:1009D000F1F1B801CE010E94E0218823C1F1B801F4
:1009E000CE010E941223882391F1B801CE010E940A
:1009F000331E882361F1F8018281882309F1CB3508
:100A00008DE5D807C1F050F4C115FCE5DF0781F092
:100A1000CF3DDC45A9F40E94691019C0CC35EDE545
:100A2000DE0761F0CD35DD4559F40E94AC0F08C0FA
:100A30000E94BE040CC00E94B50F02C00E94B80FF5
:100A4000C801DF91CF911F910F910C94570480E062
:100A5000DF91CF911F910F9108950C94BB040E94D8
:100A60003D1F0E9412240E944E050E947C1D0C9482
:100A70002D0508950C94390581E00895CF93C82F72
:100A80000E943C05882329F0C1FD02C0479A01C09D
:100A90004798CF9108953F9A479A0895CF93C82FCA
:100AA0000E943A058C2F0E943E05CF910895CF9366
:100AB000DF93CDB7DEB72B970FB6F894DEBF0FBE2E
:100AC000CDBF4F83588769877A878B8761110E94D2
:100AD000F80E9E012F5F3F4F86E0F90111928A9533
:100AE000E9F785E0FE013796D90101900D928A95CC
:100AF000E1F789819A814C815D81452B31F09F3FDF
:100B000031F491E08F3F19F403C091E001C090E00F
:100B100090FF09C049815A816B817C818D819E81C2
:100B20000E94190E05C0C9010E949C048111F2CFD8
:100B30002B960FB6F894DEBF0FBECDBFDF91CF91DD
:100B40000895FC01808191810E94F70A0895CF9356
:100B5000882309F450C0C82F8CEF8C0F813AD0F451
:100B60006C2F80910201909103010E9488248823B8
:100B700049F06C2F80910201909103010E9413258E
:100B80000E942A0F6C2F80910201909103010E9414
:100B900008250CC080E28C0F883058F4C77081E0C3
:100BA00001C0880FCA95EAF70E94DB0ECF910C9422
:100BB0002A0FEBE5EC0FE33040F4F0E0E45AFE4F8F
:100BC000808190E0CF910C944624E8E5EC0FE7316A
:100BD00050F4F0E0EE0FFF1FE25DFE4F8081918147
:100BE000CF910C945C24CD3E30F08C2F0E94BC152C
:100BF000CF910C948E16CF910895882389F19CEFA4
:100C0000980F913A40F4682F80910201909103016E
:100C10000E9413250DC090E2980F983058F4877009
:100C200091E001C0990F8A95EAF7892F0E94E10EA1
:100C30000C942A0F9BE5980F933020F480E090E00D
:100C40000C94462498E5980F973120F480E090E0CA
:100C50000C945C248D3E20F00E9417160C948E1686
:100C600008951F93CF93DF93182FEB010E94A705E0
:100C7000209741F08FE99FE00197F1F700C0000055
:100C80002197F6CF812FDF91CF911F910C94FD0515
:100C9000893319F060E070E002C060E570E00C9408
:100CA0003106882321F00E94DB0E0C942A0F089550
:100CB000882321F00E94E10E0C942A0F0895CF9210
:100CC000DF92EF92FF920F931F93CF93DF937C01FC
:100CD000162FC72FFC01D281058102950F700E944B
:100CE000D10E8823B9F0DD23A9F08C2F807F8034CA
:100CF00021F080E2810F883068F08091E20282FD6D
:100D000009C082E00E947A0F0E94D10E91E0D82E95
:100D1000D92601C0D12CCC2EC2948FE0C8228C2DB4
:100D200090E0FC01EA5AFF4F0C947E2D8C2F807FBF
:100D3000CF70882311F0C295C07FDD2399F0CC23BA
:100D400009F4A6C180E2810F883010F0111104C0AF
:100D50008C2F0E94DB0E03C08C2F0E94EB0E0E9492
:100D60002A0F96C1812F0E94FD05CC2309F4B5C13D
:100D700080E2810F883038F1112329F18C2F0E94F5
:100D8000F10E24C08C2F807FCF70803211F0C2957D
:100D9000C07F112319F01130A1F13DC08091E20212
:100DA00082FF17C0DD2349F0CC2329F08C2F0E944D
:100DB000DB0E0E942A0F80E06CC180E00E94FD05DE
:100DC000CC2309F48AC18C2F0E94E10E0E942A0FC5
:100DD00084C1DD2371F0002341F0013031F40E9421
:100DE0000B0F8C2B0E94130F78C10E940B0F8C2BC2
:100DF0001DC0002319F0013009F46FC10E94200FBB
:100E000025C0DD2321F0063008F067C10EC0053093
:100E100008F063C11BC0DD2361F0002331F0F7014E
:100E2000858180FF35C18F7085838C2F0E9451068C
:100E300054C1002359F0193309F03BC1FFEF27EEED
:100E400083E0F15020408040E1F731C18C2F0E94B7
:100E5000580643C18C2F86958695837019F0813092
:100E600061F03BC1DD2321F0812F9C2F937002C0E4
:100E700080E090E00E94462438C1DD2321F0812FDC
:100E80009C2F937002C080E090E00E945C242DC1F2
:100E9000812FDD2319F00E94BC1502C00E94171695
:100EA0000E948E1622C18C2F837009F045C0D1118B
:100EB00018C1412F429546954770440F440F612F4A
:100EC0006F70862F90E0A0E0B0E0042E04C0880F81
:100ED000991FAA1FBB1F0A94D2F714FF10C00FE07E
:100EE00010E020E030E004C0000F111F221F331F6C
:100EF0004A95D2F7009510952095309503C000E0F3
:100F000010E09801C695C695C370BC01CD01602B59
:100F1000712B822B932BC23049F058F4C13019F059
:100F20000E947409DEC00E946209DBC00E9486092B
:100F3000D8C00E946009D5C0DD2319F08C2F8170C4
:100F400001C08695882309F4CCC0412F429546956F
:100F50004770440F440F612F6F70862F90E0A0E020
:100F6000B0E0042E04C0880F991FAA1FBB1F0A946B
:100F7000D2F714FF10C00FE010E020E030E004C012
:100F8000000F111F221F331F4A95D2F700951095AD
:100F90002095309503C000E010E09801C695C695F5
:100FA000C370BC01CD01602B712B822B932BC230FF
:100FB00049F058F4C13019F00E94390A92C00E94D9
:100FC000270A8FC00E944B0A8CC00E949A0989C0D0
:100FD000CF70DD2339F08C2F0E94C009812F0E9431
:100FE00051067FC0812F0E9458068C2F0E94E10974
:100FF00078C0123F21F128F4103F41F0113FC1F0B9
:1010000043C0133F19F1143F79F03EC0DD2341F096
:10101000053008F062C08C2F8F710E94060A5DC0F7
:10102000063008F05AC0F7CF8091E20282FF18C064
:10103000DD2339F08C2F8F710E94C0094EC0DD2353
:10104000C9F38C2F8F710E94E10947C0DD2329F07D
:101050008C2F8F710E94AB0940C00E94A6093DC031
:10106000DD2349F0CF718C2F0E94C00963E08C2FE3
:101070000E945F0F32C081E00E947A0F023068F157
:1010800082E00E947A0F29C0DD2331F0002391F223
:10109000812F0E94A70521C0002399F2193349F43A
:1010A0009FEFE7EEF3E09150E040F040E1F700C041
:1010B0000000812F0E94FD0510C04C2F4F70612F42
:1010C000C7010E946D110E94250B0FC04C2F4F705D
:1010D000612FC7010E94701108C088EF8C0D843009
:1010E00020F40E9412240E944E05DD20C9F00E94C7
:1010F000CD0E80FD15C0F70112820E94C70E0E941E
:10110000C009C7010E94B1080E94C70EDF91CF91AC
:101110001F910F91FF90EF90DF90CF900C94E10919
:10112000DF91CF911F910F91FF90EF90DF90CF90C3
:1011300008950F931F93CF93DF93EC01688179811A
:101140008A810E94020B8C010E945D0A0E944E0956
:10115000B801CE010E945F06DF91CF911F910F91E0
:101160000895CF93DF93EC01988189812B813C8195
:10117000232B31F08F3F31F481E09F3F19F403C0FE
:1011800081E001C080E080FD1DC0CE010E94CD0441
:10119000811110C00E94D10E8823A1F08A8188237A
:1011A00089F08091E20282FD0DC082E0DF91CF9153
:1011B0000C947A0FCE010E949908CE01DF91CF9155
:1011C0000C949E04DF91CF91089580E090E00E94FE
:1011D000462480E090E00E945C240E94F80E0E9469
:1011E000080F0E942A0F0E94BF170C948E16809140
:1011F0000201909103010E941E250C94E5080E94B3
:10120000E80E0C94F708E92FE295EF704E2F50E0AE
:10121000FA013297EE30F105B0F4EA59FF4F0C9421
:101220007E2D803F91F018F4883E68F40EC0843F14
:1012300051F40BC0883E48F0813F29F406C093FB6F
:10124000882780F9089580E0089581E00895FC01E1
:10125000808191810E94F70A0E9403090895CF932B
:10126000DF9300D000D01F92CDB7DEB70F900F9064
:101270000F900F900F90DF91CF910895CF93DF9350
:1012800000D000D000D0CDB7DEB726960FB6F894C8
:10129000DEBF0FBECDBFDF91CF91089508950895B1
:1012A0000C944F090C9450090E9452096093120249
:1012B0007093130280931402909315020C94E50826
:1012C0000C9454090F931F93009112021091130272
:1012D0002091140230911502602B712B822B932BDD
:1012E0001F910F910C9454090F931F9300911202B8
:1012F0001091130220911402309115026023712382
:10130000822393231F910F910C9454090F931F93E1
:1013100000911202109113022091140230911502D3
:1013200060277127822793271F910F910C945409EE
:101330000C944F090E94980960930E0270930F025B
:1013400080931002909311020C94E50860E070E025
:10135000CB010C949A090F931F9341E050E060E099
:1013600070E08A019B0104C0000F111F221F331F70
:101370008A95D2F7C901B8011F910F910C949A096F
:101380000F931F9341E050E060E070E004C0440F11
:10139000551F661F771F8A95D2F780910E02909194
:1013A0000F02A0911002B09111028A019B01082B3B
:1013B000192B2A2B3B2BC901B8011F910F910C94BB
:1013C0009A090F931F9341E050E060E070E004C081
:1013D000440F551F661F771F8A95D2F74095509589
:1013E0006095709580910E0290910F02A09110026D
:1013F000B09111028A019B01082319232A233B2360
:10140000C901B8011F910F910C949A090F931F9372
:1014100041E050E060E070E004C0440F551F661FDB
:10142000771F8A95D2F780910E0290910F02A091BA
:101430001002B09111028A019B01082719272A275F
:101440003B27C901B8011F910F910C949A090F9382
:101450001F9300910E0210910F0220911002309103
:101460001102602B712B822B932B1F910F910C94E7
:101470009A090F931F9300910E0210910F02209171
:1014800010023091110260237123822393231F9154
:101490000F910C949A090F931F9300910E021091D3
:1014A0000F022091100230911102602771278227CC
:1014B00093271F910F910C949A0908952BE0929F06
:1014C000800D1124E82FE695E695E695877051E0AA
:1014D00001C0550F8A95EAF785E0E89FF0011124D5
:1014E000E353FE4F20E030E070E04081CB01022E5C
:1014F00002C0969587950A94E2F7817081958427BA
:101500008523842781932F5F3F4F2530310569F76D
:1015100008952BE0929F800D1124682F66956695A3
:101520006695982F977085E0689FB001112440E080
:1015300050E080E0FB01E40FF51FE353FE4F2081F4
:1015400030E0092E02C0369527950A94E2F7217003
:101550003327042E01C0220F0A94EAF7822B4F5F33
:101560005F4F4530510531F70895BF92CF92DF921A
:10157000EF92FF920F931F93CF93DF938C01C09054
:101580000E02D0900F02E0901002F09011028091B4
:10159000120290911302A0911402B0911502C82A70
:1015A000D92AEA2AFB2ACFE1D0E0D701C6010C2EC6
:1015B00004C0B695A795979587950A94D2F780FDB4
:1015C00004C0219790F7B12C07C0BC2EB8018C2F16
:1015D0000E94A8120197A9F38B2DDF91CF911F9143
:1015E0000F91FF90EF90DF90CF90BF900895CF9331
:1015F000DF93EC010E94B50ABE010E94A812DF91A0
:10160000CF9108951F93CF93DF93EB019091CC017D
:10161000992321F0CB010E94F70A13C0882349F0D7
:10162000CB010E94B50A182F682FCE010E945E0AD6
:1016300004C0CB010E94890A182FBE01812F0E948D
:10164000A812DF91CF911F910895EF92FF920F930F
:101650001F93CF93DF938C01892B09F46CC0F12C7D
:10166000EE24E394E8012196F8018491843740F454
:10167000843008F051C0813081F0823019F15BC0B4
:10168000853709F444C0A8F19CE7980F903708F01B
:1016900052C08F770E94FD0541C00E5F1F4FFE01B3
:1016A000849190E2980F983050F48770FE2D01C01D
:1016B000FF0F8A95EAF78F2F0E94FB0E14C00E943D
:1016C000A7052DC00E5F1F4FFE01849190E2980F79
:1016D000983060F48770FE2D01C0FF0F8A95EAF7FD
:1016E0008F2F0E94010F0E942A0F19C00E94FD0532
:1016F00016C00E5F1F4FFE01C491CC2381F08FE90D
:101700009FE00197F1F700C00000C150F6CF0E5FD7
:101710001F4FFE01F49003C00E94A7058E018F2D7C
:10172000882309F49FCFEFE9FFE03197F1F700C07C
:1017300000008150F5CFDF91CF911F910F91FF9065
:10174000EF9008951F93CF93DF93C091160216E098
:1017500080911702C81799F0D0E01C9FF0011D9FDF
:10176000F00D1124E85EFD4F40815181628173814B
:10177000848195810E943E092196C770E9CFDF914F
:10178000CF911F9108954091480250914902609174
:101790004A0270914B0280914C0290914D020C9440
:1017A0003E09EF92FF920F931F93CF93DF938091A7
:1017B0004D0282958F7009F065C080914A0288239E
:1017C00009F460C080911602F0901702109148024F
:1017D0000091490260914B0270914C0291E01F3FD1
:1017E00009F090E0C0910001D0910101292F96E00D
:1017F000E92E8F1509F446C06115710521F00F3FE0
:1018000021F030E003C031E001C0322F90E030FD24
:1018100036C0E89EF001E99EF00D1124DF01A85EBC
:10182000BD4F11963C911197301329C03C91311353
:1018300026C012963C911297311121C013964D91FA
:101840005C911497461B570B4C175D07C0F48091B1
:101850004D028F70806180934D02E35EFD4F808169
:101860008F708061808388E492E00E94B108DF91EC
:10187000CF911F910F91FF90EF900C94A20B0196C6
:101880008770B7CFDF91CF911F910F91FF90EF90AD
:1018900008959F92AF92BF92CF92DF92EF92FF9204
:1018A0000F931F93CF93DF93CDB7DEB761970FB63A
:1018B000F894DEBF0FBECDBF8C0185E0F801DE01DC
:1018C0001D9601900D928A95E1F7D8011296EC9041
:1018D00090914802E091490220914B0230914C02D4
:1018E0002115310531F0EF3F31F481E09F3F19F4CC
:1018F00003C081E001C080E0B82FB1709B2E80FD55
:1019000047C1D8014C9111965C9111971396AD90F7
:10191000BC90149788E4C82E82E0D82EF0904A023A
:10192000B501621B730B2091000130910101FF2072
:1019300009F4D9C080914D026217730708F095C071
:10194000282F207F09F052C05E1313C0491311C025
:10195000FE2CE1100EC08F70806180934D020E94BA
:10196000C30BC6010E94B10880914D02F801858326
:101970004DC1AB2831F05F3F31F481E04F3F19F4A6
:1019800003C081E001C080E080FD03C081E08E25BE
:1019900002C080E090E0F82FF170FF2E80FF1CC0A5
:1019A000809116022091170236E0821709F40BC1CC
:1019B00090E0389FF001399FF00D1124E85EFD4F53
:1019C0006181561306C06081461303C06281E6122E
:1019D00003C001968770E9CFFE2CEE2009F416C1F2
:1019E00080914D02816080934D0254C05E1306C009
:1019F000491304C0E11002C0F80199C0C8010E9457
:101A00002709882361F1EE2051F120914D02822FA8
:101A100082958F7090E0029774F0809148029091C7
:101A2000490298878F831986BB86AA862C87CE01A8
:101A300007960E94B10886E0F801A8E4B2E00190A0
:101A40000D928A95E1F70E94D10B0E94C30B0AC048
:101A50005E1711F1C8010E94270981112CC0C8012D
:101A60000E94B108FF24F394D1C0282F207F81F772
:101A70007A2DB98AA88A6E2D89890E942F0988E457
:101A800092E00E94B10886E0D6011D928A95E9F79E
:101A90000E94C30BF12CBAC04913DCCFE110DACF9E
:101AA000F8018583C8010E94B10886E0D6011D9225
:101AB0008A95E9F7ABC0EE2091F220914D02822F7A
:101AC00082958F7090E002970CF4B5CF8091480218
:101AD000909149029A8389831B82BD82AC822E83B6
:101AE000CE010196A6CF6217730708F044C0FE2C02
:101AF000EE2009F4B4CF5E1330C049132EC02091FC
:101B00004D0220FD21C0822F82958F70482F50E01A
:101B100041155105C9F0F80125834F30510541F0B9
:101B20008F5F982F9295907F822F8F70892B85835E
:101B3000C8010E94B10886E0F801A8E4B2E0019073
:101B40000D928A95E1F73CC086E0F801A8E4B2E086
:101B500001900D928A95E1F759C0C8010E942709AA
:101B6000811169CF80914D02816080934D02C8013F
:101B70000E94B1084BC07A2DB98AA88A6E2D898936
:101B80000E942F0986E0D6011D928A95E9F718C0B8
:101B9000EE2009F464CFC8010E942709F82E88239B
:101BA00009F45DCF86E0F801A8E4B2E001900D925F
:101BB0008A95E1F788E492E00E94A1050E94D10B8A
:101BC0000E94C30B23C04D875E878D859E850E9432
:101BD000F70A292F22952F70223028F49F7039F0B0
:101BE000811105C00BC0243028F49F7049F4805E39
:101BF000883020F0C8010E94B1089F2CF92C06C043
:101C0000D80115969C91907F91F7F8CF8F2D619612
:101C10000FB6F894DEBF0FBECDBFDF91CF911F91FD
:101C20000F91FF90EF90DF90CF90BF90AF909F907B
:101C300008951F93CF93DF93CDB7DEB72C970FB6E0
:101C4000F894DEBF0FBECDBF4F83588769877A8770
:101C50008B879C87CE0107960E94490C8823D1F080
:101C60009F8188852A853B85232B31F08F3F31F476
:101C700081E09F3F19F403C081E001C080E080FD56
:101C800047C04F81588569857A858B859C850E94E0
:101C90003E093EC086E0FE013796DE0111960190B6
:101CA0000D928A95E1F7FF81E8856A857B8561154C
:101CB000710531F0EF3F31F481E0FF3F19F403C0CB
:101CC00081E001C080E080FD23C02091170230E058
:101CD000C9010196877099274091160250E0841738
:101CE0009507F1F1F983EA837D836C8396E0929FF7
:101CF000D001939FB00D1124A85EBD4FFE01319617
:101D000001900D929A95E1F7809317020E94A20B21
:101D100016E08091160290911702891771F1189FB1
:101D2000C0011124885E9D4F0E94490C882329F12F
:101D3000E09116021E9FF0011124E85EFD4F4081E4
:101D4000518162817381848195810E943E098091D5
:101D5000160290E001968770992780931602D9CFDA
:101D60000E94FF081092170210921602E8E4F2E0B7
:101D700086E0DF011D928A95E9F72C960FB6F8945C
:101D8000DEBF0FBECDBFDF91CF911F91089580912F
:101D90004E02859585958595089580914E028770B0
:101DA000089590914E02977081E009F480E00895C3
:101DB00080917202089590917202892B8093720231
:101DC00008958095909172028923809372020895FC
:101DD00010927202089590917102892B8093710282
:101DE00008958095909171028923809371020895DE
:101DF00010927102089590917002892B8093700265
:101E000008958095909170028923809370020895BF
:101E100010927002089580914F02089508950C94D5
:101E20000E0F0C940F0F9091E20292FD08C090915A
:101E30004F02981721F080934F020C94110F0895D0
:101E400080914F02882329F010924F0280E00C9479
:101E5000110F0895E0910201F09103018091720247
:101E60008083E0910201F0910301908180917102E1
:101E7000892B8083E0910201F09103019081809190
:101E80007002892B808380914F02882381F0E0913A
:101E90000201F09103019081892B808380910201DE
:101EA000909103010E94722481110E94200F809161
:101EB0000201909103010C941E240C940E0F90913A
:101EC000E20292FD10C098E0899F90011124262B18
:101ED00020934E020E94C00980914E0285958595FF
:101EE00085950C945D0F0C94C00910924E0280E011
:101EF0000C945D0F20914E028095822380934E02B8
:101F0000982F977099F430E0482F082E000C550B4D
:101F10002417350759F09091E20292FD07C085958C
:101F2000859585950E94E1090C94750F089590910F
:101F3000E20292FB222720F9281769F080FB92F930
:101F40009093E2028091E1029091E2020E94E50FFB
:101F500082E00C947A0F08958091E20282FB882738
:101F600080F991E089270C94970F81E00C94970FEA
:101F700080E00C94970F6FEF7FEF80E090E00C947F
:101F80000D2E80E090E00E94E92D21E0893E9E4FD9
:101F900009F020E0822F089582E090E00C94DB2D80
:101FA00083E090E00C94DB2DCF9384E090E00E94DE
:101FB000DB2DC82F82E290E00E94DB2D2C2F30E039
:101FC000A901582BCA01CF910895CF93C92F682F2B
:101FD00084E090E00E94EF2D6C2F82E290E0CF91A0
:101FE0000C94EF2DAB01BC018FE090E00C94012E1E
:101FF000AB01BC0183E190E00C94012E60E070E045
:10200000CB010C94F80F60E070E0CB010E94F20F5E
:102010000C94FE0F69EE7EEF80E090E00E940D2EA2
:1020200060E082E090E00E94EF2D60E083E090E0CD
:102030000E94EF2D109212021092130210921402BD
:102040001092150260E084E090E00E94EF2D60E0C5
:1020500082E290E00E94EF2D60E085E090E00E9437
:10206000EF2D60E086E090E00E94EF2D6FEF87E0BB
:1020700090E00E94EF2D40E050E0BA0188E090E04F
:102080000E94012E60E08DE090E00E94EF2D40E084
:1020900050E0BA0188E190E00E94012E60E087E103
:1020A00090E00E94EF2D40E050E0BA018CE190E01A
:1020B0000E94012E60E070E080E290E00E940D2E10
:1020C00040E050E0BA0188E190E00E94012E0C94BB
:1020D00003100C940A10682F8EE090E00C94EF2D02
:1020E0000E94D02560938A0270938B0280938C02A9
:1020F00090938D026093860270938702809388028A
:1021000090938902089585B7806885BF85B78068F8
:1021100085BF089581E008950C948A1008950C9469
:102120008E100C948E100C9491100C948E100C94B4
:1021300095100C948E100E94831084E893E10E9405
:1021400008240E9499100C9497100E948F100C94F0
:102150008E100E94BB250E9486140E943D1F0E9483
:10216000411D0C9493106F927F928F929F92AF9229
:10217000BF92CF92DF92EF92FF920F931F93CF9374
:10218000DF93CDB7DEB72A970FB6F894DEBF0FBE48
:10219000CDBF0E949B1481110E94701034E7832EE2
:1021A00032E0932E00E010E0C02E802F0E94C51375
:1021B0005C01F401619071904F01682679266114E9
:1021C0007104B1F40F5F1F4F0930110569F78FEFEC
:1021D00089838A831B820E94C4258160782F9D8316
:1021E0008C8349815A816B818D810E9457053AC049
:1021F00080918E0281FD0E94CE13D12CEE24E394B7
:10220000F12CC3018E219F21892B29F10E948C1072
:102210008823A9F0DE82CF82AE20BF2081E0AB28E8
:1022200009F480E088870E94C4258160782F9A870E
:1022300089874E815F8168858A850E945705000FD6
:10224000111FF801EC58FD4F80819181E826F92695
:10225000F182E08207C0D394EE0CFF1CFBE0DF129A
:10226000D0CFB0CF0E94851D0E9403210E94AC16E2
:102270000E941224909173028917D1F00E941224B7
:10228000809373022A960FB6F894DEBF0FBECDBFBF
:10229000DF91CF911F910F91FF90EF90DF90CF9042
:1022A000BF90AF909F908F907F906F900C944E0551
:1022B0002A960FB6F894DEBF0FBECDBFDF91CF9147
:1022C0001F910F91FF90EF90DF90CF90BF90AF9054
:1022D0009F908F907F906F90089580E090E0089598
:1022E000089523E6829FC0011124FC012BE0729F18
:1022F000E00DF11D1124E60FF11DEE0FFF1FE65F4B
:10230000FE4F859194910895880F991FFC01EE5D11
:10231000FB4F859194910895CF93DF930E94AD1266
:10232000EC01811520E5920708F03FC0811540E4DB
:10233000940708F0D2C0883E910500F5803E9105D3
:1023400008F002C1883A910570F4853A910508F0C9
:10235000A6C08130910509F49FC008F4F2C004972B
:1023600008F0F2C0EEC08F3B910508F4A1C0803C9C
:10237000910508F4E6C0805C9109A5C0811550E282
:10238000950760F4C11581E0D80708F0DDC0CD3EA7
:10239000D10508F4D6C0CE019065D7C0811520E3E1
:1023A000920708F093C09F708EC0811545E5940791
:1023B00008F046C0811554E5950708F0A6C0C11580
:1023C00082E5D80718F5C11521E5D20708F088C0C5
:1023D000CE01F4E096958795FA95E1F7282F2370C2
:1023E0003C2F337081E090E002C0880F991F3A952E
:1023F000E2F79C68922B2C2F2F702695269540E2B1
:10240000249F90011124822B932B9FC09E01237047
:1024100033279C2F96959695C115D34508F065C036
:1024200041E050E002C0440F551F2A95E2F780E2D8
:10243000989F90011124CA01822B932B9C6885C020
:10244000811559E5950798F4C11588E5D80708F076
:1024500061C0C11526E5D20708F073C08C2F0E9419
:1024600041138F7190E0982F882790626EC081157C
:102470004AE5940708F453C090568115904208F03D
:1024800060C08D2F8F710E9441139E0133273062EF
:102490008F71A901582B53C081E090E056C0855A36
:1024A000C82FD0E0C357DE4F888190E090644DC0C4
:1024B000885AC82FD0E0CC0FDD1FC15ADE4F88816B
:1024C0009981946442C00E9484113FC09927D3FF30
:1024D00002C0986C3AC0906C38C09F70906A35C04A
:1024E0009C2F8827816F906A30C041E050E002C085
:1024F000440F551F2A95E2F780E2989F900111241E
:10250000CA01822B932B9A6820C0982F8827846F4A
:10251000906A1BC09C2F8827806F906A16C08F70AE
:102520000E9441139E0194E0369527959A95E1F714
:102530002F7030E0322F22273069A901482BCA01C1
:1025400004C080E090E001C0CE01DF91CF910895FA
:102550000E9471110E948C1108958238910569F1D1
:10256000B0F48133910509F46DC048F489329105C6
:1025700009F463C08A32910509F469C0089585336E
:10258000910509F455C089339105B9F00895833E4A
:10259000910569F138F4803E9105B1F0823E9105D4
:1025A00009F10895863E9105A9F1873E9105B9F19B
:1025B000843E910509F064C023C02091E10220FD12
:1025C0004FC021FD4DC008958091E10280FD44C0BF
:1025D0008091E20280FF44C08091E10284FD42C00C
:1025E00083EE4DC08091E10282FF38C0F5CF80912B
:1025F000E10282FD33C08091E20280FD31C0ECCF68
:102600008091E20281FF32C08091E10284FD2AC004
:1026100087EE35C08091E10283FF26C0F5CF80911F
:10262000E10283FD21C08091E20281FD1FC0ECCF59
:102630008091E10285FD1CC01DC08091E10285FDF5
:1026400019C016C08091E10286FD16C017C08091A6
:10265000E10286FD13C010C089E311C082EE0FC0F5
:1026600080EE0DC080E00BC086EE09C084EE07C08E
:1026700089E205C085E303C08AE201C081E390E0FE
:1026800008959091E10292FF0DC0282F2871283003
:1026900019F4877F846006C0282F2471243011F438
:1026A0008B7F886093FF0DC0282F2871283119F483
:1026B000877E846106C0282F2471243111F48B7E1B
:1026C00088612091E20220FF0DC0382F3871383028
:1026D00019F4877F816006C0382F3171313011F4D1
:1026E0008E7F886021FF0DC0282F2871283119F4B2
:1026F000877E816106C0282F2171213111F48E7EE1
:10270000886194FD877E089580E008950C94BB0F46
:102710000E949B142FEF86E791E02150804090406B
:10272000E1F700C000000E949B1480E00E94C513E6
:1027300085FF04C00E9486130C94112608950C9402
:1027400088130E94C10F811102C00E9469100E946B
:10275000CC0F80938E020E94D40F9093E20280935C
:10276000E1020E949F130E94D00F682F70E080E06A
:1027700090E00E94600960910E0270910F028091BA
:102780001002909111020C949809E82FF0E0EE0FDE
:10279000FF1FEB50FD4F808191810895089580EADD
:1027A0008A95F1F7089500C008950C94CF13089509
:1027B0000C94D7130C94D8130C94D7130C94DC13EB
:1027C000F894E82FE295EF70F0E031A1282F2F70F8
:1027D00081E090E001C0880F2A95EAF7982F909544
:1027E000932391A392A1892B82A3789408950F93A8
:1027F0001F93CF93DF93CBE9D1E089918F3F11F005
:102800000E94E01381E0C43AD807B9F7C0E9D1E0EB
:102810000BE911E089918F3F11F00E94E0130C1732
:102820001D07C1F7DF91CF911F910F910895BF92BE
:10283000CF92DF92EF92FF920F931F93CF93DF938C
:102840008C01C62FD0E0CE0185569E4F6C01FC0155
:1028500090819F3F09F450C0B62EF894E92FE2957D
:10286000EF70F0E081A19F7021E030E001C0220F05
:102870009A95EAF7822B81A382A12095282322A38F
:1028800078940E94D313E0E9F1E04BE951E021E0B4
:1028900030E0E12CF12C61916F3F89F0A62FA295D9
:1028A000AF70B0E090968C9190E06F7002C09595FB
:1028B00087956A95E2F780FD02C0C90102C080E0F9
:1028C00090E0E82AF92A220F331F4E175F0719F705
:1028D000F60180818F3F11F00E94E01361E0E11466
:1028E000F10409F460E08B2D0E94D513CC0FDD1F9D
:1028F000C00FD11FF982E882DF91CF911F910F9114
:10290000FF90EF90DF90CF90BF9008950E94F71353
:1029100082E1E5EFF2E0DF01982F1D929A95E9F749
:10292000E3EEF2E0DF011D928A95E9F789E00E946B
:10293000E6140C94A904FF920F931F93CF93DF9397
:10294000CDB7DEB762970FB6F894DEBF0FBECDBF2E
:102950008E010F5F1F4F82E1F80111928A95E9F70E
:10296000F12C6F2DC8010E941714F394F9E0FF12A7
:10297000F8CF42E150E0B80183EE92E00E94CE2D04
:10298000FF24F394009709F4F12C892B41F082E1A4
:10299000F801A3EEB2E001900D928A95E1F72F2D98
:1029A00049E065EF72E083EE92E00E94E7140E9436
:1029B000B1048F2D62960FB6F894DEBF0FBECDBF67
:1029C000DF91CF911F910F91FF9008950895FF928D
:1029D0000F931F93CF93DF93F82E092F162FD72F26
:1029E000C42F222349F081E0809391020E94C425E4
:1029F0009093900280938F02809191028823D9F066
:102A000080918F02909190020E94DC25059798F0AA
:102A1000EF2DF02FA12FBD2F80E090E04C2F50E044
:102A20008417950734F4219131912D933D930196AC
:102A3000F7CF10929102DF91CF911F910F91FF90EC
:102A400008950E94DC270E94A9100C94E8270E9498
:102A5000EC270E94B3100C9406280E944A250E947D
:102A6000C3270E949B100E9421150E9427150E94D7
:102A7000A510FBCF8091980280FF0BC060910901E7
:102A800085E0689FB00111247595679575956795E8
:102A90002BC081FF09C06091090185E0689FB001EA
:102AA00011247595679520C082FF07C060910901C8
:102AB00085E0689FB001112417C090919702992377
:102AC000D1F060910801961788F72091090185E0FF
:102AD000289F90011124929FA001939F500D1124D3
:102AE00070E0CA010E94482D6038710540F46115FC
:102AF000710519F406C065E070E0862F08958FE730
:102B0000089581E008958091980280FF08C0609147
:102B1000050170E0759567957595679521C081FFF2
:102B200006C06091050170E07595679519C082FF38
:102B300004C06091050170E010C090919602992345
:102B400099F0609104019617A0F780910501899F83
:102B5000C001112470E00E94482D6038710540F4D6
:102B60006115710519F406C061E070E0862F0895C3
:102B70008FE7089581E008958D3E21F40E943A1573
:102B8000819504C08E3E29F40E943A1580939C02E0
:102B900008958F3E21F40E943A15819504C0803F2C
:102BA00029F40E943A1580939B020895893F19F4F5
:102BB0000E94831505C08A3F31F40E9483158195D8
:102BC00080939D0208958B3F21F40E948315819587
:102BD00004C08C3F29F40E94831580939E020895BF
:102BE0009FE0980F983078F421E030E0A90102C00E
:102BF000440F551F9A95E2F7CA0190919A02892BCA
:102C000080939A0208958D3F21F48091980281600B
:102C10000BC08E3F21F480919802826005C08F3FE7
:102C200029F48091980284608093980208958D3EE3
:102C300039F490919C0297FF35C010929C0259C0C4
:102C40008E3E29F490919C021916BCF32BC09091F2
:102C50009B028F3E29F497FF25C010929B0249C02A
:102C6000803F19F41916CCF31DC090919D02893F45
:102C700029F41916BCF410929D023BC08A3F19F446
:102C800097FF10C0F8CF8B3F39F490919E0297FFC9
:102C900009C010929E022DC08C3F21F490919E029B
:102CA0001916BCF39FE0980F983080F421E030E0D3
:102CB000A90102C0440F551F9A95E2F7CA018095F9
:102CC00090919A02892380939A0213C08D3F21F438
:102CD000809198028E7F0BC08E3F21F480919802E4
:102CE0008D7F05C08F3F29F4809198028B7F809360
:102CF000980280919B02811106C080919C028111F3
:102D000002C01092970280919D02811106C08091AD
:102D10009E02811102C01092960208950E94C4255D
:102D200020919B02211104C020919C02222321F0BA
:102D3000909395028093940220919D02211104C0EA
:102D400020919E02222321F090939302809392027D
:102D500089E992E00C943824EF92FF920F931F932D
:102D6000CF93DF9300D000D000D0CDB7DEB786E0A0
:102D7000E9E9F2E0DE01119601900D928A95E1F702
:102D8000E0909B02F0909C0200919D0210919E02A7
:102D900010929B0210929C0210929D0210929E0231
:102DA000E11003C0FF2009F45DC08091940290916E
:102DB00095020E94DC25AC0190919702992339F08D
:102DC00020910A0130E02417350758F04BC02091BC
:102DD0000B018AE0289F900111242417350718F071
:102DE00041C09F3F19F09F5F90939702EE2061F0E2
:102DF0000E943A151E1414F09FEF01C091E0989FB5
:102E0000902D112490939B02FF2061F00E943A15AF
:102E10001F1414F09FEF01C091E0989F902D112492
:102E200090939C0230919B023323E1F020919C020D
:102E30002223C1F045EB3403C0011124992319F07A
:102E400090939B0203C081E080939B0235EB2303A8
:102E5000C0011124992319F090939C0203C081E0D2
:102E600080939C02011103C0112309F45DC080917D
:102E70009202909193020E94DC25AC0190919602FF
:102E8000992339F02091060130E02417350758F0D6
:102E90004BC0209107018AE0289F9001112424173C
:102EA000350718F041C09F3F19F09F5F909396023D
:102EB000002361F00E948315101614F09FEF01C0EB
:102EC00091E0989F902D112490939D02112361F021
:102ED0000E948315111614F09FEF01C091E0989F96
:102EE000902D112490939E0230919D023323E1F0A6
:102EF00020919E022223C1F045EB3403C00111242E
:102F0000992319F090939D0203C081E080939D0264
:102F100035EB2303C0011124992319F090939E02ED
:102F200003C081E080939E0280919B0281110BC0BF
:102F300080919C02811107C080919D02811103C084
:102F400080919E0281110E948E16EB82FC820D837D
:102F50001E8386E0FE013196A9E9B2E001900D9250
:102F60008A95E1F726960FB6F894DEBF0FBECDBF67
:102F7000DF91CF911F910F91FF90EF900895E9E9B4
:102F8000F2E086E0DF011D928A95E9F71092970240
:102F900010929602109298020895EF92FF920F936A
:102FA0001F93CF93DF938B01682F11110AC0442325
:102FB00029F0E82FF0E0E754FA4F6491762F862F3E
:102FC00075C0212F30E0E82FF0E0442321F0E754D2
:102FD000FA4FE491F0E046E0049FC0011124CFEFE6
:102FE000D0E0BE010E94342D4BEA4603C001479F4A
:102FF000900D1124800F911D800F911D982F990F16
:10300000890FAE01421B530B4E9FD0014F9FB00D55
:103010005E9FB00D11249B2F189FA0011124452FF6
:1030200055278E01041B150B0E9FA0010F9F500DFD
:103030001E9F500D11247E01E81AF108E29E8001C6
:10304000E39E100DF29E100D1124212F3327C21B79
:10305000D30BCE9F9001CF9F300DDE9F300D1124FA
:1030600062307105A9F048F46115710569F06130AD
:103070007105C9F48B2F752F0DC06430710581F077
:1030800058F06630710579F47E2F8B2F932F0DC089
:10309000832F7B2F9E2F09C08E2F7B2F952F05C04E
:1030A0008E2F732F02C07E2F852F692FDF91CF9136
:1030B0001F910F91FF90EF90089541E00E94CD176E
:1030C000089508950E945D180895CF93DF93762F99
:1030D000E901682F842F0E946218798368838A83AC
:1030E000DF91CF91089580910703282F269530E036
:1030F0002115310519F48170826005C02532310532
:1031000024F08170886480930703089588E090E03C
:103110000C94E32DCF92DF92EF92FF926B017C0132
:103120000E947318B701A60188E090E0FF90EF902D
:10313000DF90CF900C94012EE7E0F3E083E08083F2
:1031400011828FEF828383831482608171818281F7
:1031500093810C948A188091070380FF02C08695A2
:10316000089580E0089590910B03933018F49F5FC9
:1031700090930B03882351F060910703709108032B
:103180008091090390910A030C948A18089581E0B4
:103190000C94B31890910B03992319F091509093CC
:1031A0000B03882351F0609107037091080380910D
:1031B000090390910A030C948A18089581E00C94F5
:1031C000CA1870E00C94B52160911001809107033A
:1031D00080FF0AC080910F0123E0829FC00111246B
:1031E000845F9C4F0C94E118809111019091120121
:1031F000891780F7E82FF0E09F01220F331FE20FBD
:10320000F31FE45FFC4F1182108212828F5FF0CFB8
:103210009091070390FF16C0909111012091120127
:10322000921770F4E92FF0E0DF01AA0FBB1FEA0F3D
:10323000FB1FE45FFC4F8183608342839F5FF0CF7D
:103240000C94E4180895CF93DF9300D01F92CDB76C
:10325000DEB79091070390FF0AC09E012F5F3F4F9A
:103260000E9465184B8169818A810E9408190F901C
:103270000F900F90DF91CF910895CF93DF93EC01E2
:10328000EC81F0E0EC5CFB4F4491E7E0F3E062811D
:1032900081810E9423198C818F5F8C83DF91CF9174
:1032A0000895CF93DF93EC01E7E0F3E0438162817F
:1032B0008C810E9423198C818F5F8C83DF91CF9149
:1032C00008950F931F93CF93DF9300D01F92CDB734
:1032D000DEB78C0180919F0281110AC09E012F5F91
:1032E0003F4F4FEF6FEF0E9465188A8180939F02D6
:1032F000F8018481813051F028F0823061F44091EE
:103300009F020AC080919F0240E007C060919F0227
:1033100040E080E003C040E080E060E00E940819E7
:10332000F801848190E0019663E070E00E94482DEE
:1033300084830F900F900F90DF91CF911F910F9189
:103340000895AF92BF92CF92DF92EF92FF920F93C8
:103350001F93CF93DF9300D01F92CDB7DEB7182F06
:10336000F62E042FE22E9091070390FF6DC0E92FF7
:10337000E695AE2FB0E0AC55BE4F8C918093AB027A
:103380009E7F923061F49E012F5F3F4F812F0E94FC
:1033900065184B8169818A810E94081943C0823077
:1033A00019F400910A033EC0863019F41091080305
:1033B00039C08930D9F38931A9F5E9518E2F81704F
:1033C000D82EE695F0E0EC5CFA4FA590B490C12CB5
:1033D000BB2460911301C61618F52C2D30E0A29E77
:1033E000C001A39E900DB29E900D112470E00E942A
:1033F000342D812FD11002C0860F01C0861B909101
:103400001101290F311DA901440F551F240F351F2C
:10341000245F3C4F402F6F2D0E946518C394D9CF75
:103420000E94E41810930803F092090300930A0322
:10343000EE2051F060910703709108038091090319
:1034400090910A030E948A180F900F900F90DF91BD
:10345000CF911F910F91FF90EF90DF90CF90BF9091
:10346000AF900895E7E0F3E09181282F43816281D6
:1034700088E0890F0C94A11981E00C94321AE7E0DE
:10348000F3E09181282F4381628188EF890F0C94AA
:10349000A11981E00C943F1AE7E0F3E0628128E093
:1034A000620F08F46FEF282F438181810C94A119DA
:1034B00081E00C944C1AE7E0F3E0628128E0621BA3
:1034C00008F460E0282F438181810C94A11981E0E8
:1034D0000C945B1AE7E0F3E0438128E0420F08F424
:1034E0004FEF282F628181810C94A11981E00C9407
:1034F0006A1AE7E0F3E0438128E0421B08F440E069
:10350000282F628181810C94A11981E00C94791A91
:1035100020E00C94A119FF920F931F93CF93DF9398
:10352000EC01F12C0FEF10E060911301F616F0F4AE
:10353000809111012F2D30E0280F311DC901880F16
:10354000991F280F391F245F3C4F70E0C8010E946B
:10355000482D962F8C8140910A0360910903F99EB2
:10356000800D11240E946518F394DECF0E94E418A8
:103570009A818C8190FF02C08F5F01C081508C8343
:10358000DF91CF911F910F91FF900895AF92BF925D
:10359000CF92DF92EF92FF920F931F93CF93DF931F
:1035A000FC01828180FF02C00FEF01C001E010E04A
:1035B00044E1A42E80911301181708F043C08091B4
:1035C0001101C12ED12CE601C80FD11DCE01880FEB
:1035D000991FC80FD91FC45FDC4F198218821A8245
:1035E00034E0E32EF12CB12C8091A1028B0D8531BA
:1035F0002CF06A2D0E94262D892F05C087FF03C05D
:1036000090911301890F082E000C990BC816D9064A
:1036100091F480910A038E9DA0018F9D500D11247D
:1036200055954795559547959E0160910903809161
:1036300008030E946518B00EF1E0EF1AF108A1F638
:103640001F5FB8CF0E94E4188091A102013031F4CD
:10365000811102C080911301815007C090E0019652
:103660006091130170E00E94482D8093A102DF91C8
:10367000CF911F910F91FF90EF90DF90CF90BF906F
:10368000AF900895CF938091110190911201891705
:1036900070F4E82FF0E09F01220F331FE20FF31FB9
:1036A000E45FFC4F1182108212828F5FF0CFC0E086
:1036B00060911301C617C0F5EC2FF0E070E0CF0168
:1036C0000E94482D20911101820F2091A002022E0C
:1036D000000C330B90E0E217F307CCF020910E01C1
:1036E000022E000C330B2E173F078CF09C01220F8B
:1036F000331F820F931F9C01245F3C4F40910A03AC
:1037000060910903809108030E9465180BC0FC01B9
:10371000EE0FFF1F8E0F9F1FFC01E45FFC4F118215
:1037200010821282CF5FC4CF0E94E41820910D0155
:103730008091A002820F8093A00290910E01920FBF
:1037400090930E0119165CF4082E000C990B409111
:10375000130150E041505109841795071CF0219541
:1037600020930D01CF9108958F929F92AF92BF92B7
:10377000CF92DF92EF92FF920F931F93CF93DF933D
:103780008C01FC014481C42FD0E09E01DE010E9427
:103790008C2D9B01AC010E94A22D6B017C01E0E20B
:1037A000F0E0EC1BFD0BA5E5B0E09B01AC010E9435
:1037B000A22D4B015C019F01DF010E94842D9B0122
:1037C000AC010E94AD2D9B01AC012C0D3D1D4E1D89
:1037D0005F1DC501B4010E945C2DC22FD22F2A3279
:1037E00028F4F3E02F9F900111240DC025E530E06F
:1037F0002C1B3109C901880F991F280F391F37FF6A
:1038000002C02F5F3F4F35952795C22FC095F12CF1
:1038100085E5E82EED1A80911301F816C8F4F1FC45
:1038200002C08E2D01C08D2F909111012F2D30E0FF
:10383000290F311DA901440F551F240F351F245F87
:103840003C4F4C2F609109030E946518F394E3CF1D
:103850000E94E418F8018481811102C091E003C044
:10386000803219F49FEF90930C0190910C01890F15
:10387000F8018483DF91CF911F910F91FF90EF901A
:10388000DF90CF90BF90AF909F908F9008950F934F
:103890001F93CF93DF93EC0100E010E080911301C0
:1038A000282F30E00217130724F590911101980199
:1038B000290F311DA901440F551F240F351F245F07
:1038C0003C4F869590E04C81081719071CF444235F
:1038D00031F002C0411103C040910A0301C040E031
:1038E00060910903809108030E9465180F5F1F4FC4
:1038F000D5CF0E94E4188C8190E0019681709927C1
:103900008C83DF91CF911F910F910895E7E0F3E051
:1039100080818E7F808360817181828193810E940A
:103920008A181092AC022FEF80E792E0215080407D
:103930009040E1F700C000000C94E418E7E0F3E0E9
:1039400080818E7F80831092AC022FEF80E792E01F
:10395000215080409040E1F700C000000C94E41832
:103960001092AC028091A90281110AC081E080937B
:10397000A9028091070381708093A8020C949E1C79
:10398000089560910703669570E04BE050E084E194
:1039900091E00E94C12D892B19F481E08093AC0243
:1039A0000E94C4259093A3028093A202089590914F
:1039B000070390FF35C09170811102C0926006C06C
:1039C000853210F0986402C0880F982B90930703FB
:1039D000662351F0609107037091080380910903F9
:1039E00090910A030E948A1860910703669570E01F
:1039F0004BE050E084E191E00E94C12D892B19F049
:103A00001092AC0202C00E94C11C81E08093A5020A
:103A100040910A0360910903809108030C94881A6D
:103A20000895682F90910703969581E0890F85325C
:103A300008F081E00C94D71C81E00C94111D682FD4
:103A40009091070396958FEF890F09F484E20C9407
:103A5000D71C81E00C941F1D61E00C94D71CE7E09B
:103A6000F3E080818160808386950C942C1D809189
:103A7000070380FD0C94861C0C942F1D60E00C94B1
:103A8000D71C8091AA0281112EC00E94C10F811102
:103A900004C00E9469100E949C180E9486186093BE
:103AA0000703709308038093090390930A036E7FC2
:103AB00061F40E949C180E9486186093070370931B
:103AC00008038093090390930A030E9473181092CD
:103AD000AC028091070380FF03C086950E943E1DC3
:103AE00081E08093AA020895E7E0F3E0808181609D
:103AF000808386950C943E1D1092A9028091A802A5
:103B000081110E94741D0C94C11C0F931F93CF93BD
:103B1000DF938091AC02882309F485C08091AB02C9
:103B2000E0910703E695E81BE093A402823049F494
:103B3000F0E0E05DFB4FE491CE2FD0E00DE319E122
:103B400049C0863049F4F0E0E35DFB4FE491CE2FAD
:103B5000D0E001E519E13EC0893051F4E695F0E08E
:103B6000E65DFB4FE491CE2FD0E00BE81AE132C0C6
:103B70008F3051F4E695F0E0E95DFB4FE491CE2FF4
:103B8000D0E006EC1AE126C0853149F4F0E0EC5DA6
:103B9000FB4FE491CE2FD0E002E41BE11BC0883143
:103BA00081F0833239F4E2E2F4E0C591D49101E688
:103BB00019E110C0843251F4C4EFD1E007E41CE1F4
:103BC00009C0C8E2D0E004EB1BE104C0C0EDD7E0BF
:103BD00001E618E18091A502882361F01092A50208
:103BE0000E94C4259093A3028093A2021092A70280
:103BF0001092A6020E94C425E091A202F091A302B5
:103C00008E1B9F0B8F3F9F4770F4EC0FFD1FF093AF
:103C1000A302E093A20282EA92E0F801DF91CF9141
:103C20001F910F910994DF91CF911F910F910895EA
:103C3000882311F0FA0101C0FB010994CF93DF93AF
:103C4000C82FD62F0E94AB188C1740F00E94AB18DB
:103C50008D1720F4DF91CF910C941C1D8C2FDF91D8
:103C6000CF910C942C1D1F93CF93DF93FB011281F6
:103C7000112309F4BCC0EC010E94D80E8272CD3C25
:103C8000FCE5DF0709F497C008F043C0C73CECE54A
:103C9000DE0709F47CC0D8F4C43C9CE5D90709F4DC
:103CA0006AC038F4C33CDC4509F0A4C00E94371D4B
:103CB000A0C0C53C9CE5D90709F462C0C63CDC4500
:103CC00009F098C049E45AE16CE37AE15DC0CA3C6E
:103CD000FCE5DF0709F465C070F4C83CECE5DE07DD
:103CE00009F45AC0C93CDC4509F084C048E55AE1F2
:103CF00067E67AE149C0CB3C9CE5D90709F456C098
:103D0000CC3CDC4509F076C04EED58E167EC78E13B
:103D10003BC0C23DFCE5DF0709F45AC098F4CF3C34
:103D20009CE5D90709F44EC008F44AC0C03DFCE543
:103D3000DF0709F44AC0C13DDC4509F05BC06EE015
:103D400089E04EC0C53D9CE5D90709F447C050F451
:103D5000C33DFCE5DF07F9F1C43DDC4509F04AC08D
:103D600088E142C0C63D9CE5D907E9F1CE35DD4585
:103D700009F43FC03FC049E25DE16CE17DE104C070
:103D80004CE15DE169E27DE10E94181E32C04CE326
:103D90005AE169E47AE1F8CF47E65AE168E57AE169
:103DA000F3CF45E85AE166E77AE1EECF46E75AE11C
:103DB00065E87AE1E9CF47EC58E16EED78E1E4CFD0
:103DC00081E012C065E082E00BC068E086E008C0D8
:103DD00064E18FE005C067E185E102C062E289E14C
:103DE0000E941E1E06C083E20E942C1D02C011E02C
:103DF00001C010E0812FDF91CF911F91089586E0DF
:103E000090E00C94DB2D682F86E090E00C94EF2D71
:103E10008091480384708961809348030C94031F48
:103E200080914803869586958695089580914803EC
:103E300081FD07C08260809348030E94031F0C9499
:103E4000042108958091480381FF07C08D7F8093EE
:103E500048030E94031F0C94102108958091480389
:103E600081FD0C94221F0C94161F809148038695A7
:103E70008170089580911F0108950E94C10F8111E2
:103E800004C00E9469100E94081F0E94FF1E8093B8
:103E90004803282F26952695269530E024303105B5
:103EA00024F087708861809348038091480380FFE5
:103EB00004C086958695869501C080E00C94D1203B
:103EC00020914803822F869586958695482F50E04D
:103ED0004330510554F48F5F982F990F990F990F24
:103EE000822F8770892B80934803809148038160DB
:103EF000809348030E94031F80914803869586950E
:103F000086950C94D12080914803982F969596958C
:103F10009695A1F0915E990F990F990F8770892B53
:103F200080934803887F91E009F490E080914803F2
:103F300090FB80F9809348030E94031F80914803FF
:103F40008695869586950C94D1208091480380FDB6
:103F500013C0816080934803813019F489E0809315
:103F60004803809148030E94031F8091480386956F
:103F7000869586950C94D12008958091480380FF02
:103F800008C08E7F809348030E94031F80E00C943A
:103F9000D12008958091480380FD0C94BD1F0C949E
:103FA000A51F90914803892F8695869586958F5FEA
:103FB0008F719770843038F4880F880F880F892BA1
:103FC0008093480302C09093480380914803887F00
:103FD00091E009F490E08091480390FB80F9809390
:103FE00048030E94031F8091480386958695869515
:103FF0000C94D120843008F083E0909148039770AE
:10400000282F220F220F220F922B90934803987F84
:1040100021E009F420E09091480320FB90F990936F
:1040200048030C94D1200E94FA1F809148030C94FD
:10403000031FFC01DB0112968C918823F9F0EC5BE5
:10404000FC45E730F105D8F4EC58FF4F0C947E2D79
:1040500083E001C080E00E94132080E008950E9468
:10406000831FFBCF0E94601FF8CF0E94CA1FF5CFAD
:104070000E94D11FF2CF0E942E1FEFCF81E0089542
:10408000269A2E9808952E9808958F929F92AF9217
:10409000BF92CF92DF92EF92FF920F931F93CF9335
:1040A000DF938C0180918600909187006CE070E036
:1040B0000E94342D6017710730F0C80169E070E08C
:1040C0000E94342D60C08091860090918700E0901E
:1040D0008600F0908700E0918600F0918700C6E0AE
:1040E000D0E0BE010E94342D20E030E0060F171F03
:1040F000211D311D4801590185E0880C991CAA1C1D
:10410000BB1C8A95D1F7C701BE010E94342D6F01F7
:10411000E12CF12CA7019601260F371F411D511DDF
:10412000C501B4010E945C2D69017A01E09186000D
:10413000F0918700CA01B9010E94162D9B01AC01C4
:10414000DF010E94A22D9B01AC01C701B6010E94B4
:10415000162DDC01CB012FE0B695A7959795879595
:104160002A95D1F7009186001091870020E030E079
:10417000081719072A073B0728F4609186007091F9
:104180008700CB01BC01CB01DF91CF911F910F9133
:10419000FF90EF90DF90CF90BF90AF909F908F9067
:1041A0000895CF93C82F843050F4811109C08091B5
:1041B00080008F7D809380000E94432006C0C3E072
:1041C00080918000806280938000A0918600B091F1
:1041D00087002C2F30E00E948C2D23E030E040E05F
:1041E00050E00E945C2DB42FA32F922F8827892F97
:1041F0009A2FAB2FBB270E94452090938B00809372
:104200008A00CF91089508951092AE021092AD02E7
:104210001092AF02EFE6F0E0808181608083089524
:10422000EFE6F0E080818E7F80830E94101F0C9467
:10423000D1201F920F920FB60F9211240F931F934C
:104240002F933F934F935F936F937F938F939F939E
:10425000AF93BF93CF93EF93FF938091200191E0B1
:10426000980F823019F09093200155C081E080931F
:1042700020010E943A1FC82F0091AD021091AE029A
:104280000F5F1F4F0E943A1F28E7829FB001112441
:10429000C8010E94342D9093AE028093AD0228E7AE
:1042A000C29FB0011124660F672F661F770B7195AF
:1042B0000E94342D6F778091AF02823019F4603400
:1042C00051F404C0813039F46F3729F480916F00C4
:1042D0008E7F80936F00E62FF0E0E75CFA4FC49189
:1042E00000918600109187000E94101F282FC09F08
:1042F000C001C19F900D11246DEF72E00E94342D1A
:10430000269FC001279F900D11240E944520909365
:104310008B0080938A00FF91EF91CF91BF91AF9175
:104320009F918F917F916F915F914F913F912F91CD
:104330001F910F910F900FBE0F901F9018950E9424
:10434000402082E28093800089E1809381008FEF9A
:104350009FEF90938700809386000E943D1F0E94EC
:10436000351F81110C94042108956A9A2EB12B7F78
:104370003EB134604FB7F894FC01CB01880F991F10
:10438000680F791F6E0F7F1FE617F70789F081917D
:1043900098E03EB9000000C087FF2EB9880F0000EA
:1043A00000C000C000C02EB900C09A9591F7ECCFB4
:1043B0004FBF8FE594E00197F1F700C0000008952A
:1043C000CF93DF93EC01FB018281882309F426C19E
:1043D000C430FDE5DF0760F4CB3F9CE5D90768F406
:1043E0009E0122503C452431310508F018C105C01A
:1043F000C236EDE5DE0709F012C10E94D40F90939A
:10440000E2028093E102C031FCE5DF0709F4CAC093
:1044100008F041C0C8309CE5D90709F4A4C0F0F405
:10442000C430FCE5DF0709F48CC068F4C2309CE5B9
:10443000D90709F482C0C330DC4509F0E5C080919A
:10444000E1028260DFC0C630FCE5DF0709F483C00B
:1044500008F085C08091E1028860D4C0CC309CE532
:10446000D90709F490C068F4CA30FCE5DF0709F405
:104470007EC008F084C00E94FF088091E10280683D
:10448000C1C0CE309CE5D90709F481C008F086C0D0
:104490008091E10294C0CD3FFCE5DF0709F47BC0C9
:1044A00038F5C4319CE5D90709F49AC058F4C231F3
:1044B000FCE5DF0709F47AC008F07EC08091E102D4
:1044C0008F7BA0C0CB3F9CE5D907F1F108F03FC03E
:1044D000C531DC4509F098C08091E10282FB2227BA
:1044E00020F991E0922790FB82F990FB83F98AC032
:1044F000C1308DE5D80709F467C050F48091E2021D
:10450000CF3FECE5DE07C1F108F05BC08D7F65C0F1
:10451000C3308DE5D80709F471C008F46DC0C23608
:10452000DD4509F071C08091E10284FB222720F96A
:1045300091E0922790FB84F965C08091E10281604F
:1045400061C08091E10216C08091E20216C08091A4
:10455000E202826042C08091E102806153C080919A
:10456000E10280624FC08091E10280644BC0809183
:10457000E1028860846046C0826081602EC08091C4
:10458000E1028E7F3FC08091E1028D7F3BC0809130
:10459000E102877F37C08091E20214C08091E1027E
:1045A0008F7E30C08091E1028F7D2CC00E94FF0879
:1045B0008091E1028F7726C08091E102877F8B7F17
:1045C00021C08D7F8E7F09C08091E202982F909547
:1045D00091708E7F892B90FB81F98093E20214C049
:1045E0000E94FF088091E10287FB222720F991E0D9
:1045F000922790FB87F906C081E001C080E00E940D
:104600006B1002C08093E1028091E1029091E2027E
:104610000E94E50F0E94FF0880E001C081E0DF9169
:10462000CF910895CF93DF9386319C4541F5EB01FF
:104630000E94D80E982F8A812091020130910301A7
:10464000882379F09A7A81E009F480E08093B002BF
:10465000911102C069E201C065E3C9010E94082509
:104660000AC08091B002811102C069E201C065E315
:10467000C9010E9413250E942A0F80E001C081E039
:10468000DF91CF9108950F931F93CF93DF93C42FA2
:10469000D22FFC0182818823C9F04093B3020E948B
:1046A000C4259093B2028093B10280E28C0F8830CF
:1046B00008F057C0C77081E001C0880FCA95EAF7BB
:1046C000DF91CF911F910F910C9451068091B3020D
:1046D000481330C08091B1029091B2020E94DC2553
:1046E000883C910538F510E21D0FCD17B9F080E236
:1046F0008C0F883040F4C77081E001C0880FCA95E4
:10470000EAF70E945806183028F581E09D2F97702F
:1047100001C0880F9A95EAF70E945106802F0E94E7
:1047200048061830F0F4D77081E001C0880FDA95A0
:10473000EAF70AC080E28C0F883098F4C77081E0F5
:1047400001C0880FCA95EAF7DF91CF911F910F91B1
:104750000C945806802FDF91CF911F910F910C94EC
:104760004806DF91CF911F910F9108950F939C01FF
:10477000CB01243F4CE5340731F188F4293DFCE5B9
:104780003F07D9F02A3D4CE5340779F1283D3C45F7
:10479000A9F506E221EE41EE68ED7CE52BC0263F4F
:1047A000FCE53F07E1F0A8F0273F3C4539F507E27B
:1047B00025EE46EE67EF7CE51DC007E225EE45EEEF
:1047C00069ED7CE517C006E221EE40EE64EF7CE582
:1047D00011C007E225EE44EE65EF7CE50BC006E272
:1047E00021EE42EE66EF7CE505C008E221E045EEF1
:1047F0006AED7CE50E94432380E008C0FC018281D1
:10480000882319F01092B30201C081E00F9108953E
:104810009093CB018093CA0108959093B90280933D
:10482000B8020895E091B802F091B902309721F0F2
:104830000190F081E02D099480E00895E091B802A4
:10484000F091B902309799F020912D01222359F06F
:104850002091E10227FF07C0DC012C9111962C93D7
:10486000119726E02C930280F381E02D099408959E
:10487000E091B802F091B902309739F022E0DC0102
:104880002C930480F581E02D099408952091B602BF
:104890003091B7022817390771F09093B7028093CF
:1048A000B602E091B802F091B902309721F006808B
:1048B000F781E02D099408952091B4023091B5025A
:1048C0002817390771F09093B5028093B402E091F4
:1048D000B802F091B902309721F00084F185E02D03
:1048E00009940895FC01329680912D01882331F0BE
:1048F0008091E10287FF02C09EE101C096E080E066
:10490000915028F021912223D9F38F5FF9CF089598
:10491000662351F120912D012223E9F02091E1023B
:1049200027FF19C0462F4695469546954E31E0F42F
:10493000677021E030E002C0220F331F6A95E2F772
:10494000FC01E40FF11D828190E02823392381E0EE
:10495000232B69F409C0FC01329608962191621755
:1049600029F0E817F907D1F780E0089581E008956C
:104970009C01FC0132969FEF80E04191461789F03F
:104980009F3F19F4411101C0982F8F5F8630A9F71E
:104990009F3F39F0F901E90FF11D97FDFA95628308
:1049A000089508959C012A5F3F4FFC014281461300
:1049B00001C01282019682179307B9F70895262F36
:1049C0002695269526952E3168F4FC01E20FF11DFF
:1049D000677021E030E001C0220F6A95EAF782811A
:1049E000282B22830895262F2695269526952E314D
:1049F00070F4FC01E20FF11D677021E030E001C0AE
:104A0000220F6A95EAF72095828128232283089550
:104A100020912D01222329F02091E10227FD0C9401
:104A2000DF240C94B82420912D01222329F0209119
:104A3000E10227FD0C94F3240C94D22420912D0143
:104A4000FC013296222331F08091E10287FF02C0FF
:104A50008EE101C086E0DF011D928A95E9F7089595
:104A600008950C94302583E08093BA020C9431258C
:104A7000811102C081E001C082E08093BA020C94EF
:104A800031250C94382581E08093BA020C943125AD
:104A90000C944325089580915103843031F10E9494
:104AA000B3041092BB0220E488E190E00FB6F894C2
:104AB000A895809360000FBE2093600083B7817F2C
:104AC000846083BF83B7816083BF7894889583B700
:104AD0008E7F83BF0FB6F894A8958091600088619F
:104AE00080936000109260000FBE089508950C94AA
:104AF0007625CF930E9477250E949B140E947625ED
:104B0000C0E08C2F0E94C513892B29F4CF5FC930D8
:104B1000C1F780E001C081E0CF9108950E94FF08B5
:104B20000C942F051F920F920FB60F9211248F93A2
:104B30009F93AF93BF938091BB02811113C080916B
:104B4000490390914A03A0914B03B0914C034196C5
:104B5000A11DB11D8093490390934A03A0934B0379
:104B6000B0934C03BF91AF919F918F910F900FBE67
:104B70000F901F90189582E084BD93E095BD9AEF49
:104B800097BD80936E0008952FB7F89480914903E4
:104B900090914A03A0914B03B0914C032FBF08950D
:104BA0002FB7F8946091490370914A0380914B03A9
:104BB00090914C032FBF08959C014FB7F8948091BA
:104BC000490390914A03A0914B03B0914C034FBF0E
:104BD000821B930B089578941F920F920FB60F9239
:104BE00011248F939F93AF93BF938091490390912A
:104BF0004A03A0914B03B0914C030196A11DB11D36
:104C00008093490390934A03A0934B03B0934C03C2
:104C1000BF91AF919F918F910F900FBE0F901F90FA
:104C2000189581E08093E00080E28093D800109294
:104C3000C9008FE19EE40197F1F700C0000087E012
:104C400090EBDC0180935A0390935B03A0935C0389
:104C5000B0935D039CE088E10FB6F894A89580932B
:104C600060000FBE90936000FFCF8091DF02089537
:104C7000089522E02093E9002FEF3091E8002150C1
:104C800035FD06C035ED3A95F1F700002111F5CF5D
:104C90002091E80025FF0BC040E050E066E070E0A6
:104CA0000E9478288091E8008E778093E80008952C
:104CB000CF93DF9320912D01222339F02091E1023F
:104CC00027FF03C060E222E002C068E021E02093F9
:104CD000E9002FEF3091E800215035FD06C035ED99
:104CE0003A95F1F700002111F5CF2091E80025FF5A
:104CF0001DC0EC0180912D01811105C040E050E004
:104D000068E070E003C070E040E050E0CE010E9437
:104D100078288091E8008E778093E80080E2FE0199
:104D2000AFEBB2E001900D928A95E1F7DF91CF9160
:104D300008958093BC027093BE026093BD0280917F
:104D40005103843001F582E08093E9008FEF909168
:104D5000E800815095FD06C095ED9A95F1F70000A9
:104D60008111F5CF8091E80085FF0DC040E050E053
:104D700063E070E08CEB92E00E9478288091E8007C
:104D80008E778093E8000895BC0184E00C94992606
:104D9000BC0183E00C94992680915003811109C0D5
:104DA0000E94092A0E94662A8091E2008460809312
:104DB000E20008951092500308950C9448256091E4
:104DC0004D0381E0611101C080E00C943325909186
:104DD000510381E0943009F080E060914D030C9420
:104DE000382542E061EC81E00E94822942E261ECD8
:104DF00082E00E9482299091510381E0943009F071
:104E000080E060914D030C944125809153038330E1
:104E100009F461C030F4813071F0823009F49AC035
:104E200008958A3009F486C08B3009F46CC089304B
:104E300009F0A8C020C080915203813A09F0A2C0B5
:104E40008091E800877F8093E800809156039091DD
:104E50005703892B21F460E28FEB92E003C060E0FE
:104E600080E090E070E00E94C3288091E8008B779A
:104E70008093E800089580915203813209F082C046
:104E80008091560390915703029708F07BC0809160
:104E9000E800877F8093E8008091E80082FD05C0EC
:104EA000809151038111F8CF6DC02091F300809162
:104EB000F20090E0922B029731F48091F100813062
:104EC00011F0863021F48091F1008093DF0280910F
:104ED000E8008B7753C080915203813A09F052C0A9
:104EE0008091560390915703892B09F04BC0809114
:104EF000E800877F8093E8008091E80080FFFCCF86
:104F000080912D0136C0809152038132D9F5809174
:104F1000560390915703892BA9F58091E800877F6C
:104F20008093E8000E94B7298091540380932D015B
:104F30000C94FF0880915203813221F58091E800A2
:104F4000877F8093E8000E94B72980915503809362
:104F5000E002089580915203813AA1F48091E80023
:104F6000877F8093E8008091E80080FFFCCF8091EC
:104F7000E0028093F1008091E8008E778093E80052
:104F80000C94B729089584B7877F84BF0FB6F8942F
:104F9000A895809160008861809360001092600005
:104FA0000FBE90E080E80FB6F89480936100909374
:104FB00061000FBE0C9443250E94092A0E94662AB4
:104FC000E2EEF0E080818460808378940C94FB2C86
:104FD00081E291E00C940D24809151038530A9F475
:104FE00080915103853079F40E944B2580914F03C5
:104FF0008823B1F30E947925882391F30E946228C7
:105000000E94FF08EDCF0C948E25089508950C940E
:105010000928292F332723303105C9F060F42130C6
:10502000310581F02230310509F044C08BE390E076
:1050300029ED36E043C021323105E1F0223231055D
:1050400049F138C082E190E024E137E037C0992788
:105050008130910549F028F0029761F5E9EBF6E01F
:1050600005C0E5EDF6E002C0E5ECF6E0849190E0E5
:105070009F0124C06115710541F061307105D1F4C3
:1050800089E090E024E037E019C089E090E02BEE61
:1050900036E014C06115710541F06130710551F4BD
:1050A00086EB90E026E237E009C080E490E02CED4A
:1050B00037E004C080E090E020E030E0FA01318386
:1050C0002083089580E189BD82E189BD09B400FE95
:1050D000FDCF8091D8008F7D8093D8008091E00033
:1050E00082608093E0008091E00081FDFCCF089514
:1050F000CF92DF92EF92FF920F931F93CF93DF93A4
:10510000EC018B017A010E94D629811133C0E11490
:10511000F10439F0F70180819181081B190BC80F48
:10512000D91FC12CD12C0115110519F18091E8006E
:1051300085FD16C08091E8008E778093E800E11429
:10514000F10449F0F70180819181C80ED91ED18206
:10515000C08285E00FC00E94D629882321F30AC0AF
:1051600089918093F10001501109FFEFCF1ADF0AF6
:10517000DACF80E0DF91CF911F910F91FF90EF90F8
:10518000DF90CF900895209158033091590326174E
:10519000370748F06115710539F42091E8002E7742
:1051A0002093E80001C0B901FC0120E06115710500
:1051B00079F1809151038823F1F18530F1F18091EB
:1051C000E80083FD3CC08091E80082FD2EC0809104
:1051D000E80080FFEBCF2091F3008091F20090E097
:1051E000922B6115710551F08830910538F42191A9
:1051F0002093F100615071090196F3CF21E00897E7
:1052000009F020E08091E8008E778093E800CECF0F
:105210002111CFCF0AC080915103882361F08530DE
:1052200061F08091E80083FD0AC08091E80082FF70
:10523000F2CF80E0089582E0089583E0089581E050
:10524000089520915803309159032617370748F0E5
:105250006115710539F42091E8002E772093E8005C
:1052600001C0B901FC0120E06115710591F1809147
:105270005103882309F440C0853009F43FC0809170
:10528000E80083FD3DC08091E80082FD2FC0809141
:10529000E80080FFE9CF2091F3008091F20090E0D8
:1052A000922B6115710559F08830910540F42491D5
:1052B0002093F1003196615071090196F2CF21E0FF
:1052C000089709F020E08091E8008E778093E8004D
:1052D000CBCF2111CCCF0AC080915103882361F03C
:1052E000853061F08091E80083FD0AC08091E8007C
:1052F00082FFF2CF80E0089582E0089583E0089570
:1053000081E00895982F973068F59093E9009817F9
:1053100039F07091EC002091ED005091F00003C045
:10532000242F762F50E021FD02C09F5FECCF3091FB
:10533000EB003E7F3093EB003091ED003D7F3093EA
:10534000ED003091EB0031603093EB007093EC0096
:105350002093ED005093F0002091EE0027FDE5CF63
:1053600080E008958F708093E90081E00895809136
:10537000520387FF11C08091E80082FD05C0809133
:1053800051038111F8CF11C08091E8008B770BC0D9
:1053900080915103882349F08091E80080FFF8CF85
:1053A0008091E8008E778093E80008952091E400D2
:1053B0003091E50095E64091EC00842F817040FF2C
:1053C00023C08091E80080FD1DC080915103882397
:1053D00099F0853099F08091EB0085FD11C04091E6
:1053E000E4005091E5002417350729F3915011F09E
:1053F0009A01E1CF84E0089582E0089583E0089562
:1054000081E0089580E008954091E80042FFDDCFFB
:1054100008950E94772A0E947F2AE0EEF0E08081C2
:1054200081608083E8EDF0E080818F77808319BC14
:10543000A7EDB0E08C918E7F8C9380818F7E8083EE
:105440001092500308950F931F93CF93DF930E9400
:10545000772A0E947F2AC8EDD0E088818F778883E1
:1054600088818068888388818F7D888319BC1092A9
:10547000510310924D0310924F0310924E0300EE11
:1054800010E0F80180818B7F808388818160888330
:1054900042E060E080E00E948229E1EEF0E080815D
:1054A0008E7F8083E2EEF0E0808181608083808166
:1054B00088608083F80180818E7F8083888180610D
:1054C0008883DF91CF911F910F910895E8EDF0E06F
:1054D00080818F7E8083E7EDF0E080818160808332
:1054E00084E082BF81E0809350030C94232AE8ED8E
:1054F000F0E080818E7F80831092E2000895109208
:10550000DA001092E10008951F920F920FB60F92E9
:1055100011242F933F934F935F936F937F938F93B8
:105520009F93AF93BF93EF93FF938091E10082FF2E
:105530000BC08091E20082FF07C08091E1008B7F69
:105540008093E1000E94FA2C8091DA0080FF1FC056
:105550008091D80080FF1BC08091DA008E7F8093FD
:10556000DA008091D90080FF0DC080E189BD82E121
:1055700089BD09B400FEFDCF81E0809351030E94F4
:10558000CC2605C019BC109251030E94DA268091E6
:10559000E10080FF19C08091E20080FF15C080917A
:1055A000E2008E7F8093E2008091E2008061809330
:1055B000E2008091D80080628093D80019BC85E019
:1055C000809351030E94DF268091E10084FF30C068
:1055D0008091E20084FF2CC080E189BD82E189BD19
:1055E00009B400FEFDCF8091D8008F7D8093D80054
:1055F0008091E1008F7E8093E1008091E2008F7EB8
:105600008093E2008091E20081608093E2008091CB
:105610004D03882311F084E007C08091E30087FDEB
:1056200002C081E001C083E0809351030E94E7261D
:105630008091E10083FF29C08091E20083FF25C0B3
:105640008091E100877F8093E10082E080935103A5
:1056500010924D038091E1008E7F8093E100809154
:10566000E2008E7F8093E2008091E200806180936F
:10567000E20042E060E080E00E9482298091F00038
:1056800088608093F0000E94DD26FF91EF91BF912A
:10569000AF919F918F917F916F915F914F913F91CA
:1056A0002F910F900FBE0F901F9018951F920F9281
:1056B0000FB60F9211242F933F934F935F936F93E5
:1056C0007F938F939F93AF93BF93CF93DF93EF938A
:1056D000FF93C091E900CF708091EC00D82FD1707A
:1056E00080FDD0E81092E9008091F000877F8093E0
:1056F000F00078940E949A2B1092E9008091F000BB
:1057000088608093F000CD2BCF70C093E900FF91AB
:10571000EF91DF91CF91BF91AF919F918F917F9149
:105720006F915F914F913F912F910F900FBE0F900E
:105730001F9018951F93CF93DF93CDB7DEB7AA972D
:105740000FB6F894DEBF0FBECDBFE2E5F3E0809167
:10575000F100819323E0EA35F207C9F70E9405279B
:105760008091E80083FF2EC18091520390915303F2
:10577000492F50E04A30510508F024C1FA01E5589C
:10578000FF4F0C947E2D803821F0823809F01AC129
:1057900008C080914E0390914F03992389F0826055
:1057A0000FC0809156038F70873008F00BC1809333
:1057B000E9008091EB0085FB882780F91092E900D1
:1057C0009091E800977F9093E8008093F100109209
:1057D000F100D1C0282F2D7F09F0F4C0882319F0E3
:1057E000823061F0EFC080915403813009F0EAC04B
:1057F000933009F080E080934F032EC080915403D2
:1058000081112AC0809156038F702FEF280F263008
:1058100008F0D8C08093E9002091EB0020FF1CC065
:10582000933021F48091EB00806214C09091EB00E2
:1058300090619093EB0021E030E0A90102C0440F99
:10584000551F8A95E2F74093EA001092EA00809192
:10585000EB0088608093EB001092E9008091E800F3
:10586000877F8093E8000E94B729ACC08111AAC04D
:10587000109154031F778091E3008078812B8093EF
:10588000E3008091E800877F8093E8000E94B729B9
:105890008091E80080FFFCCF8091E30080688093D6
:1058A000E300111102C082E001C083E08093510344
:1058B00089C08058823008F085C08091540390914F
:1058C00055038C3D53E0950779F583E08A838AE29E
:1058D00089834FB7F894DE01139620E03EE051E251
:1058E000E32FF0E050935700E49120FF03C0E295CE
:1058F000EF703F5FEF708E2F90E0EA3010F0C796A8
:1059000001C0C0968D939D932F5F243149F74FBFFF
:105910008091E800877F8093E8006AE270E0CE0122
:1059200001960E94C32816C06091560370915703D8
:10593000AE014F5F5F4F0E940728BC01892B09F41D
:1059400041C09091E800977F9093E80089819A8107
:105950000E9421298091E8008B778093E80032C073
:10596000803881F58091E800877F8093E8008091FE
:105970004D038093F1008091E8008E7772CF811102
:1059800021C0809154039091550399270297D4F434
:105990008091E800877F8093E80080915403809392
:1059A0004D030E94B72980914D03811106C080915B
:1059B000E30087FD02C081E001C084E080935103D1
:1059C0000E94F1268091E80083FF0AC08091E800E0
:1059D000877F8093E8008091EB0080628093EB00EA
:1059E000AA960FB6F894DEBF0FBECDBFDF91CF9160
:1059F0001F9108950895CF93809151038823A1F0BA
:105A0000C091E900CF709091EC00892F817090FDDA
:105A100080E8C82B1092E9008091E80083FD0E9485
:105A20009A2BCF70C093E900CF910895DB018F933B
:105A30009F930E94A22DBF91AF91A29F800D911DB7
:105A4000A39F900DB29F900D1124089587FB082EFF
:105A5000062687FD819567FD61950E94B52D0EF4A0
:105A6000919507FC81950895AA1BBB1B51E107C0C6
:105A7000AA1FBB1FA617B70710F0A61BB70B881FDE
:105A8000991F5A95A9F780959095BC01CD0108956D
:105A900097FB072E16F4009407D077FD09D00E94DB
:105AA000342D07FC05D03EF4909581959F4F0895C5
:105AB000709561957F4F0895A1E21A2EAA1BBB1B1A
:105AC000FD010DC0AA1FBB1FEE1FFF1FA217B307CA
:105AD000E407F50720F0A21BB30BE40BF50B661FE0
